{
  "contractName": "MultiSig",
  "abi": [
    {
      "inputs": [
        {
          "internalType": "address[]",
          "name": "_owners",
          "type": "address[]"
        },
        {
          "internalType": "uint8",
          "name": "_minimumConformations",
          "type": "uint8"
        }
      ],
      "payable": false,
      "stateMutability": "nonpayable",
      "type": "constructor"
    },
    {
      "anonymous": false,
      "inputs": [
        {
          "indexed": true,
          "internalType": "address",
          "name": "owner",
          "type": "address"
        },
        {
          "indexed": true,
          "internalType": "uint256",
          "name": "index",
          "type": "uint256"
        }
      ],
      "name": "Confirm",
      "type": "event"
    },
    {
      "anonymous": false,
      "inputs": [
        {
          "indexed": true,
          "internalType": "address",
          "name": "sender",
          "type": "address"
        },
        {
          "indexed": false,
          "internalType": "uint256",
          "name": "amount",
          "type": "uint256"
        },
        {
          "indexed": false,
          "internalType": "uint256",
          "name": "balance",
          "type": "uint256"
        }
      ],
      "name": "Deposit",
      "type": "event"
    },
    {
      "anonymous": false,
      "inputs": [
        {
          "indexed": true,
          "internalType": "address",
          "name": "owner",
          "type": "address"
        },
        {
          "indexed": true,
          "internalType": "uint256",
          "name": "index",
          "type": "uint256"
        }
      ],
      "name": "Execute",
      "type": "event"
    },
    {
      "anonymous": false,
      "inputs": [
        {
          "indexed": true,
          "internalType": "address",
          "name": "owner",
          "type": "address"
        },
        {
          "indexed": true,
          "internalType": "uint256",
          "name": "index",
          "type": "uint256"
        }
      ],
      "name": "RevokeConformation",
      "type": "event"
    },
    {
      "anonymous": false,
      "inputs": [
        {
          "indexed": true,
          "internalType": "address",
          "name": "owner",
          "type": "address"
        },
        {
          "indexed": true,
          "internalType": "uint256",
          "name": "index",
          "type": "uint256"
        },
        {
          "indexed": true,
          "internalType": "address",
          "name": "to",
          "type": "address"
        },
        {
          "indexed": false,
          "internalType": "uint256",
          "name": "value",
          "type": "uint256"
        },
        {
          "indexed": false,
          "internalType": "bytes",
          "name": "data",
          "type": "bytes"
        }
      ],
      "name": "Transact",
      "type": "event"
    },
    {
      "payable": true,
      "stateMutability": "payable",
      "type": "fallback"
    },
    {
      "constant": true,
      "inputs": [
        {
          "internalType": "address",
          "name": "",
          "type": "address"
        }
      ],
      "name": "isUniqueOwner",
      "outputs": [
        {
          "internalType": "bool",
          "name": "",
          "type": "bool"
        }
      ],
      "payable": false,
      "stateMutability": "view",
      "type": "function"
    },
    {
      "constant": true,
      "inputs": [],
      "name": "minimumConformations",
      "outputs": [
        {
          "internalType": "uint8",
          "name": "",
          "type": "uint8"
        }
      ],
      "payable": false,
      "stateMutability": "view",
      "type": "function"
    },
    {
      "constant": true,
      "inputs": [
        {
          "internalType": "uint256",
          "name": "",
          "type": "uint256"
        }
      ],
      "name": "owners",
      "outputs": [
        {
          "internalType": "address",
          "name": "",
          "type": "address"
        }
      ],
      "payable": false,
      "stateMutability": "view",
      "type": "function"
    },
    {
      "constant": true,
      "inputs": [
        {
          "internalType": "uint256",
          "name": "",
          "type": "uint256"
        }
      ],
      "name": "transactions",
      "outputs": [
        {
          "internalType": "address",
          "name": "to",
          "type": "address"
        },
        {
          "internalType": "uint256",
          "name": "value",
          "type": "uint256"
        },
        {
          "internalType": "bytes",
          "name": "data",
          "type": "bytes"
        },
        {
          "internalType": "bool",
          "name": "isExecuted",
          "type": "bool"
        },
        {
          "internalType": "uint8",
          "name": "numberOfConfims",
          "type": "uint8"
        }
      ],
      "payable": false,
      "stateMutability": "view",
      "type": "function"
    },
    {
      "constant": false,
      "inputs": [
        {
          "internalType": "address",
          "name": "_to",
          "type": "address"
        },
        {
          "internalType": "uint256",
          "name": "_value",
          "type": "uint256"
        },
        {
          "internalType": "bytes",
          "name": "_data",
          "type": "bytes"
        }
      ],
      "name": "transact",
      "outputs": [],
      "payable": false,
      "stateMutability": "nonpayable",
      "type": "function"
    },
    {
      "constant": false,
      "inputs": [
        {
          "internalType": "uint256",
          "name": "_index",
          "type": "uint256"
        }
      ],
      "name": "confirm",
      "outputs": [],
      "payable": false,
      "stateMutability": "nonpayable",
      "type": "function"
    },
    {
      "constant": false,
      "inputs": [
        {
          "internalType": "uint256",
          "name": "_index",
          "type": "uint256"
        }
      ],
      "name": "execute",
      "outputs": [],
      "payable": false,
      "stateMutability": "nonpayable",
      "type": "function"
    },
    {
      "constant": false,
      "inputs": [
        {
          "internalType": "uint256",
          "name": "_index",
          "type": "uint256"
        }
      ],
      "name": "revokeConformation",
      "outputs": [],
      "payable": false,
      "stateMutability": "nonpayable",
      "type": "function"
    },
    {
      "constant": false,
      "inputs": [],
      "name": "deposit",
      "outputs": [],
      "payable": true,
      "stateMutability": "payable",
      "type": "function"
    },
    {
      "constant": true,
      "inputs": [],
      "name": "getOwners",
      "outputs": [
        {
          "internalType": "address[]",
          "name": "",
          "type": "address[]"
        }
      ],
      "payable": false,
      "stateMutability": "view",
      "type": "function"
    },
    {
      "constant": true,
      "inputs": [],
      "name": "getTransactionCount",
      "outputs": [
        {
          "internalType": "uint256",
          "name": "",
          "type": "uint256"
        }
      ],
      "payable": false,
      "stateMutability": "view",
      "type": "function"
    },
    {
      "constant": true,
      "inputs": [
        {
          "internalType": "uint256",
          "name": "_index",
          "type": "uint256"
        }
      ],
      "name": "getTransaction",
      "outputs": [
        {
          "internalType": "address",
          "name": "to",
          "type": "address"
        },
        {
          "internalType": "uint256",
          "name": "value",
          "type": "uint256"
        },
        {
          "internalType": "bytes",
          "name": "data",
          "type": "bytes"
        },
        {
          "internalType": "bool",
          "name": "executed",
          "type": "bool"
        },
        {
          "internalType": "uint256",
          "name": "numberOfConfims",
          "type": "uint256"
        }
      ],
      "payable": false,
      "stateMutability": "view",
      "type": "function"
    },
    {
      "constant": true,
      "inputs": [
        {
          "internalType": "uint256",
          "name": "_index",
          "type": "uint256"
        },
        {
          "internalType": "address",
          "name": "_owner",
          "type": "address"
        }
      ],
      "name": "isConfirmed",
      "outputs": [
        {
          "internalType": "bool",
          "name": "",
          "type": "bool"
        }
      ],
      "payable": false,
      "stateMutability": "view",
      "type": "function"
    }
  ],
  "bytecode": "0x60806040523480156200001157600080fd5b5060405162001e1838038062001e18833981810160405260408110156200003757600080fd5b81019080805160405193929190846401000000008211156200005857600080fd5b838201915060208201858111156200006f57600080fd5b82518660208202830111640100000000821117156200008d57600080fd5b8083526020830192505050908051906020019060200280838360005b83811015620000c6578082015181840152602081019050620000a9565b505050509050016040526020018051906020019092919050505060008251116200013c576040517f08c379a000000000000000000000000000000000000000000000000000000000815260040180806020018281038252603281526020018062001de66032913960400191505060405180910390fd5b60008160ff1611801562000154575081518160ff1611155b620001ab576040517f08c379a000000000000000000000000000000000000000000000000000000000815260040180806020018281038252604881526020018062001d9e6048913960600191505060405180910390fd5b80600160006101000a81548160ff021916908360ff16021790555060008090505b82518160ff16101562000366576000838260ff1681518110620001eb57fe5b60200260200101519050600073ffffffffffffffffffffffffffffffffffffffff168173ffffffffffffffffffffffffffffffffffffffff16141562000299576040517f08c379a000000000000000000000000000000000000000000000000000000000815260040180806020018281038252601a8152602001807f6f776e65722063616e277420686176652061646472657373203000000000000081525060200191505060405180910390fd5b6001600260008373ffffffffffffffffffffffffffffffffffffffff1673ffffffffffffffffffffffffffffffffffffffff16815260200190815260200160002060006101000a81548160ff02191690831515021790555060008190806001815401808255809150509060018203906000526020600020016000909192909190916101000a81548173ffffffffffffffffffffffffffffffffffffffff021916908373ffffffffffffffffffffffffffffffffffffffff16021790555050508080600101915050620001cc565b505050611a2580620003796000396000f3fe6080604052600436106100c25760003560e01c80639ace38c21161007f578063c4627c5d11610059578063c4627c5d14610584578063d0e30db014610676578063d886029914610680578063fe0d94c1146106b1576100c2565b80639ace38c2146103d7578063a0e67e2b146104dd578063ba0179b514610549576100c2565b8063025e7c271461011a5780630f472ae31461019557806312959724146101fe5780632e7700f01461023957806333ea3dc81461026457806380f59a6514610364575b3373ffffffffffffffffffffffffffffffffffffffff167f90890809c654f11d6e72a28fa60149770a0d11ec6c92319d6ceb2bb0a4ea1a153447604051808381526020018281526020019250505060405180910390a2005b34801561012657600080fd5b506101536004803603602081101561013d57600080fd5b81019080803590602001909291905050506106ec565b604051808273ffffffffffffffffffffffffffffffffffffffff1673ffffffffffffffffffffffffffffffffffffffff16815260200191505060405180910390f35b3480156101a157600080fd5b506101e4600480360360208110156101b857600080fd5b81019080803573ffffffffffffffffffffffffffffffffffffffff169060200190929190505050610728565b604051808215151515815260200191505060405180910390f35b34801561020a57600080fd5b506102376004803603602081101561022157600080fd5b8101908080359060200190929190505050610748565b005b34801561024557600080fd5b5061024e610aa3565b6040518082815260200191505060405180910390f35b34801561027057600080fd5b5061029d6004803603602081101561028757600080fd5b8101908080359060200190929190505050610ab0565b604051808673ffffffffffffffffffffffffffffffffffffffff1673ffffffffffffffffffffffffffffffffffffffff1681526020018581526020018060200184151515158152602001838152602001828103825285818151815260200191508051906020019080838360005b8381101561032557808201518184015260208101905061030a565b50505050905090810190601f1680156103525780820380516001836020036101000a031916815260200191505b50965050505050505060405180910390f35b34801561037057600080fd5b506103bd6004803603604081101561038757600080fd5b8101908080359060200190929190803573ffffffffffffffffffffffffffffffffffffffff169060200190929190505050610bdf565b604051808215151515815260200191505060405180910390f35b3480156103e357600080fd5b50610410600480360360208110156103fa57600080fd5b8101908080359060200190929190505050610c57565b604051808673ffffffffffffffffffffffffffffffffffffffff1673ffffffffffffffffffffffffffffffffffffffff16815260200185815260200180602001841515151581526020018360ff1660ff168152602001828103825285818151815260200191508051906020019080838360005b8381101561049e578082015181840152602081019050610483565b50505050905090810190601f1680156104cb5780820380516001836020036101000a031916815260200191505b50965050505050505060405180910390f35b3480156104e957600080fd5b506104f2610d6c565b6040518080602001828103825283818151815260200191508051906020019060200280838360005b8381101561053557808201518184015260208101905061051a565b505050509050019250505060405180910390f35b34801561055557600080fd5b506105826004803603602081101561056c57600080fd5b8101908080359060200190929190505050610dfa565b005b34801561059057600080fd5b50610674600480360360608110156105a757600080fd5b81019080803573ffffffffffffffffffffffffffffffffffffffff16906020019092919080359060200190929190803590602001906401000000008111156105ee57600080fd5b82018360208201111561060057600080fd5b8035906020019184600183028401116401000000008311171561062257600080fd5b91908080601f016020809104026020016040519081016040528093929190818152602001838380828437600081840152601f19601f82011690508083019250505050505050919291929050505061116b565b005b61067e611413565b005b34801561068c57600080fd5b5061069561146b565b604051808260ff1660ff16815260200191505060405180910390f35b3480156106bd57600080fd5b506106ea600480360360208110156106d457600080fd5b810190808035906020019092919050505061147e565b005b600081815481106106f957fe5b906000526020600020016000915054906101000a900473ffffffffffffffffffffffffffffffffffffffff1681565b60026020528060005260406000206000915054906101000a900460ff1681565b600260003373ffffffffffffffffffffffffffffffffffffffff1673ffffffffffffffffffffffffffffffffffffffff16815260200190815260200160002060009054906101000a900460ff166107ea576040517f08c379a00000000000000000000000000000000000000000000000000000000081526004018080602001828103825260218152602001806119466021913960400191505060405180910390fd5b806003805490508110610865576040517f08c379a00000000000000000000000000000000000000000000000000000000081526004018080602001828103825260148152602001807f696e76616c696420696e646578206e756d62657200000000000000000000000081525060200191505060405180910390fd5b816003818154811061087357fe5b906000526020600020906006020160030160009054906101000a900460ff1615610905576040517f08c379a000000000000000000000000000000000000000000000000000000000815260040180806020018281038252601c8152602001807f7472616e73616374696f6e20616c72656164792045786563757465640000000081525060200191505060405180910390fd5b60006003848154811061091457fe5b90600052602060002090600602019050600115158160040160003373ffffffffffffffffffffffffffffffffffffffff1673ffffffffffffffffffffffffffffffffffffffff16815260200190815260200160002060009054906101000a900460ff161515146109cf576040517f08c379a00000000000000000000000000000000000000000000000000000000081526004018080602001828103825260268152602001806119676026913960400191505060405180910390fd5b60008160040160003373ffffffffffffffffffffffffffffffffffffffff1673ffffffffffffffffffffffffffffffffffffffff16815260200190815260200160002060006101000a81548160ff02191690831515021790555060018160050160008282829054906101000a900460ff160392506101000a81548160ff021916908360ff160217905550833373ffffffffffffffffffffffffffffffffffffffff167ff5d37f6f307eb6d676868b52402c87ca9e0e22dc2053888a3d77e4b9a90292dd60405160405180910390a350505050565b6000600380549050905090565b6000806060600080600060038781548110610ac757fe5b906000526020600020906006020190508060000160009054906101000a900473ffffffffffffffffffffffffffffffffffffffff168160010154826002018360030160009054906101000a900460ff168460050160009054906101000a900460ff16828054600181600116156101000203166002900480601f016020809104026020016040519081016040528092919081815260200182805460018160011615610100020316600290048015610bbe5780601f10610b9357610100808354040283529160200191610bbe565b820191906000526020600020905b815481529060010190602001808311610ba157829003601f168201915b505050505092508060ff169050955095509550955095505091939590929450565b60008060038481548110610bef57fe5b906000526020600020906006020190508060040160008473ffffffffffffffffffffffffffffffffffffffff1673ffffffffffffffffffffffffffffffffffffffff16815260200190815260200160002060009054906101000a900460ff1691505092915050565b60038181548110610c6457fe5b90600052602060002090600602016000915090508060000160009054906101000a900473ffffffffffffffffffffffffffffffffffffffff1690806001015490806002018054600181600116156101000203166002900480601f016020809104026020016040519081016040528092919081815260200182805460018160011615610100020316600290048015610d3c5780601f10610d1157610100808354040283529160200191610d3c565b820191906000526020600020905b815481529060010190602001808311610d1f57829003601f168201915b5050505050908060030160009054906101000a900460ff16908060050160009054906101000a900460ff16905085565b60606000805480602002602001604051908101604052809291908181526020018280548015610df057602002820191906000526020600020905b8160009054906101000a900473ffffffffffffffffffffffffffffffffffffffff1673ffffffffffffffffffffffffffffffffffffffff1681526020019060010190808311610da6575b5050505050905090565b600260003373ffffffffffffffffffffffffffffffffffffffff1673ffffffffffffffffffffffffffffffffffffffff16815260200190815260200160002060009054906101000a900460ff16610e9c576040517f08c379a00000000000000000000000000000000000000000000000000000000081526004018080602001828103825260218152602001806119466021913960400191505060405180910390fd5b806003805490508110610f17576040517f08c379a00000000000000000000000000000000000000000000000000000000081526004018080602001828103825260148152602001807f696e76616c696420696e646578206e756d62657200000000000000000000000081525060200191505060405180910390fd5b8160038181548110610f2557fe5b906000526020600020906006020160030160009054906101000a900460ff1615610fb7576040517f08c379a000000000000000000000000000000000000000000000000000000000815260040180806020018281038252601c8152602001807f7472616e73616374696f6e20616c72656164792045786563757465640000000081525060200191505060405180910390fd5b8260038181548110610fc557fe5b906000526020600020906006020160040160003373ffffffffffffffffffffffffffffffffffffffff1673ffffffffffffffffffffffffffffffffffffffff16815260200190815260200160002060009054906101000a900460ff1615611077576040517f08c379a00000000000000000000000000000000000000000000000000000000081526004018080602001828103825260258152602001806119cc6025913960400191505060405180910390fd5b60006003858154811061108657fe5b9060005260206000209060060201905060018160040160003373ffffffffffffffffffffffffffffffffffffffff1673ffffffffffffffffffffffffffffffffffffffff16815260200190815260200160002060006101000a81548160ff02191690831515021790555060018160050160008282829054906101000a900460ff160192506101000a81548160ff021916908360ff160217905550843373ffffffffffffffffffffffffffffffffffffffff167fbde73c39e691e6143456e01935275fd9f654dacca25911f03ab0d587644377eb60405160405180910390a35050505050565b600260003373ffffffffffffffffffffffffffffffffffffffff1673ffffffffffffffffffffffffffffffffffffffff16815260200190815260200160002060009054906101000a900460ff1661120d576040517f08c379a00000000000000000000000000000000000000000000000000000000081526004018080602001828103825260218152602001806119466021913960400191505060405180910390fd5b6000600380549050905060036040518060a001604052808673ffffffffffffffffffffffffffffffffffffffff168152602001858152602001848152602001600015158152602001600060ff168152509080600181540180825580915050906001820390600052602060002090600602016000909192909190915060008201518160000160006101000a81548173ffffffffffffffffffffffffffffffffffffffff021916908373ffffffffffffffffffffffffffffffffffffffff1602179055506020820151816001015560408201518160020190805190602001906112f59291906118a0565b5060608201518160030160006101000a81548160ff02191690831515021790555060808201518160050160006101000a81548160ff021916908360ff1602179055505050508373ffffffffffffffffffffffffffffffffffffffff16813373ffffffffffffffffffffffffffffffffffffffff167fde6c95dde9124f7ed70f08e49453e46abcbfb521283c346f1caf73ae9641c46986866040518083815260200180602001828103825283818151815260200191508051906020019080838360005b838110156113d25780820151818401526020810190506113b7565b50505050905090810190601f1680156113ff5780820380516001836020036101000a031916815260200191505b50935050505060405180910390a450505050565b3373ffffffffffffffffffffffffffffffffffffffff167f90890809c654f11d6e72a28fa60149770a0d11ec6c92319d6ceb2bb0a4ea1a153447604051808381526020018281526020019250505060405180910390a2565b600160009054906101000a900460ff1681565b600260003373ffffffffffffffffffffffffffffffffffffffff1673ffffffffffffffffffffffffffffffffffffffff16815260200190815260200160002060009054906101000a900460ff16611520576040517f08c379a00000000000000000000000000000000000000000000000000000000081526004018080602001828103825260218152602001806119466021913960400191505060405180910390fd5b80600380549050811061159b576040517f08c379a00000000000000000000000000000000000000000000000000000000081526004018080602001828103825260148152602001807f696e76616c696420696e646578206e756d62657200000000000000000000000081525060200191505060405180910390fd5b81600381815481106115a957fe5b906000526020600020906006020160030160009054906101000a900460ff161561163b576040517f08c379a000000000000000000000000000000000000000000000000000000000815260040180806020018281038252601c8152602001807f7472616e73616374696f6e20616c72656164792045786563757465640000000081525060200191505060405180910390fd5b60006003848154811061164a57fe5b90600052602060002090600602019050600160009054906101000a900460ff1660ff168160050160009054906101000a900460ff1660ff1610156116d9576040517f08c379a000000000000000000000000000000000000000000000000000000000815260040180806020018281038252603f81526020018061198d603f913960400191505060405180910390fd5b60018160030160006101000a81548160ff02191690831515021790555060008160000160009054906101000a900473ffffffffffffffffffffffffffffffffffffffff1673ffffffffffffffffffffffffffffffffffffffff1682600101548360020160405180828054600181600116156101000203166002900480156117975780601f10611775576101008083540402835291820191611797565b820191906000526020600020905b815481529060010190602001808311611783575b505091505060006040518083038185875af1925050503d80600081146117d9576040519150601f19603f3d011682016040523d82523d6000602084013e6117de565b606091505b5050905080611855576040517f08c379a00000000000000000000000000000000000000000000000000000000081526004018080602001828103825260148152602001807f6e6f742065786563757465642c204641494c454400000000000000000000000081525060200191505060405180910390fd5b843373ffffffffffffffffffffffffffffffffffffffff167f892cd8f5b436bd5fb7dac1f11aafb73345d892ba3e9fe09cd94d95ba84928e7360405160405180910390a35050505050565b828054600181600116156101000203166002900490600052602060002090601f016020900481019282601f106118e157805160ff191683800117855561190f565b8280016001018555821561190f579182015b8281111561190e5782518255916020019190600101906118f3565b5b50905061191c9190611920565b5090565b61194291905b8082111561193e576000816000905550600101611926565b5090565b9056fe6f6e6c79206f776e65722063616e2063616c6c20746869732066756e6374696f6e74686973207472616e73616374696f6e20616c7265616479206e6f7420636f6e6669726d65646d696e696d756d206e756d626572206f6620636f6e666f726d6174696f6e73206e6f742073617469736669656420736f2063616e6e6f74206578656375746574686973207472616e73616374696f6e20697320616c726561647920636f6e6669726d6564a265627a7a72315820e14e6a5bb55bf5d371f9699acb63f5da8768fa4ef981026ce2264bf5bfc43d6e64736f6c6343000510003263616e27742068617665207a65726f20636f6e6669726d6174696f6e2c206d696e696d756d206f6e652c206d617820657175616c20746f206e756d626572206f66206f776e65727363616e27742068617665207a65726f206f776e6572732c206d696e696d756d206f6e65206f776e6572207265717569726564",
  "source": "pragma solidity ^0.5.16;\n\ncontract MultiSig{\n    \n    address[] public owners;\n    uint8 public minimumConformations;\n    mapping (address => bool) public isUniqueOwner;\n    \n    struct Transaction {\n        address to;\n        uint value;\n        bytes data;\n        bool isExecuted;\n        mapping (address => bool) isConfirmed;\n        uint8 numberOfConfims;\n    }\n    \n    Transaction[] public transactions;\n    \n    constructor(address[] memory _owners, uint8 _minimumConformations) public {\n        require(_owners.length > 0, \"can't have zero owners, minimum one owner required\");\n        require(_minimumConformations > 0 && _minimumConformations <= _owners.length, \"can't have zero confirmation, minimum one, max equal to number of owners\");\n        \n        minimumConformations = _minimumConformations;\n        \n        for (uint8 i=0; i<_owners.length; i++){\n           address owner = _owners[i];\n           require(owner != address(0), \"owner can't have address 0\");\n           //require(!isUniqueOwner[owner], \"should be unique owner, this owner already exists!\");\n           isUniqueOwner[owner] = true; \n           owners.push(owner);\n        }\n    }\n    \n    \n    // fallback function \n    function() payable external {\n        emit Deposit(msg.sender, msg.value, address(this).balance);\n    }\n    \n    modifier onlyOwner {\n        require(isUniqueOwner[msg.sender], \"only owner can call this function\");\n        _;\n    }\n    \n    modifier indexExists(uint index) {\n        require(index < transactions.length,\"invalid index number\");\n        _;\n    }\n    \n    modifier notExecuted(uint index) {\n        require(!transactions[index].isExecuted, \"transaction already Executed\");\n        _;\n    }\n    \n    modifier notConfirmed(uint index){\n        require(!transactions[index].isConfirmed[msg.sender], \"this transaction is already confirmed\");\n        _;\n    }\n    \n\n    event Deposit(address indexed sender, uint amount, uint balance);\n    event Transact(address indexed owner, uint indexed index, address indexed to, uint value, bytes data);\n    event Confirm(address indexed owner, uint indexed index);\n    event Execute(address indexed owner, uint indexed index);\n    event RevokeConformation(address indexed owner, uint indexed index);\n    \n    function transact(address _to, uint _value, bytes memory _data) public onlyOwner {\n        // creating Transaction ID as lengthh of transcation i.e Ist transcation will have id =0, next =1 and so on; \n        // transactions is array of struct Transaction;\n        \n        uint index = transactions.length; \n        \n        transactions.push(Transaction({\n            to : _to,\n            value : _value,\n            data : _data,\n            isExecuted: false,\n            numberOfConfims : 0\n        }));\n        emit Transact(msg.sender, index, _to, _value,_data);\n    }\n    \n    function confirm(uint _index) public onlyOwner indexExists(_index) notExecuted(_index) notConfirmed(_index){\n        Transaction storage transaction = transactions[_index];\n        transaction.isConfirmed[msg.sender] = true;\n        \n        // this means that msg.sender has approved for the transaction \n        // so increase the number of conformations of the transaction\n        \n        transaction.numberOfConfims += 1;\n        \n        emit Confirm(msg.sender, _index);\n    }\n \n    function execute(uint _index) public onlyOwner indexExists(_index) notExecuted(_index) {\n        Transaction storage transaction = transactions[_index];\n        require(transaction.numberOfConfims >= minimumConformations, \"minimum number of conformations not satisfied so cannot execute\");\n        transaction.isExecuted = true;\n        \n        // execute the transaction with call method \n        \n        (bool isSuccess, ) = transaction.to.call.value(transaction.value)(transaction.data);\n        require(isSuccess, \"not executed, FAILED\");\n        emit Execute(msg.sender, _index);\n    }\n\n    function revokeConformation(uint _index) public onlyOwner indexExists(_index) notExecuted(_index) {\n        Transaction storage transaction = transactions[_index];\n        require(transaction.isConfirmed[msg.sender] == true, \"this transaction already not confirmed\");\n        transaction.isConfirmed[msg.sender] = false;\n        transaction.numberOfConfims -= 1;\n        emit RevokeConformation(msg.sender, _index);\n    }\n    \n    function deposit() payable external {\n        emit Deposit(msg.sender, msg.value, address(this).balance);\n    }\n\n    function getOwners() public view returns (address[] memory) {\n        return owners;\n    }\n\n    function getTransactionCount() public view returns (uint) {\n        return transactions.length;\n    }\n\n    function getTransaction(uint _index)\n        public\n        view\n        returns (address to, uint value, bytes memory data, bool executed, uint numberOfConfims)\n    {\n        Transaction storage transaction = transactions[_index];\n\n        return (\n            transaction.to,\n            transaction.value,\n            transaction.data,\n            transaction.isExecuted,\n            transaction.numberOfConfims\n        );\n    }\n\n    function isConfirmed(uint _index, address _owner)\n        public\n        view\n        returns (bool)\n    {\n        Transaction storage transaction = transactions[_index];\n\n        return transaction.isConfirmed[_owner];\n    }\n}   \n\n\n\n\n\n\n",
  "sourcePath": "/home/vivek/Blockchain/Multisig/multisig-wallet/wallet/contracts/MultiSig.sol",
  "compiler": {
    "name": "solc",
    "version": "0.5.16+commit.9c3226ce.Emscripten.clang"
  },
  "schemaVersion": "3.2.0",
  "updatedAt": "2020-10-29T07:29:31.969Z",
  "networkType": "ethereum",
  "devdoc": {
    "methods": {}
  },
  "userdoc": {
    "methods": {}
  }
}